:020000040800F2
:1000000078460020F5020008CD100008270B0008F4
:10001000C9100008D70500080916000800000000F4
:100020000000000000000000000000003502000891
:10003000DB05000800000000910200089D12000886
:100040000F0300080F0300080F0300080F03000848
:100050000F0300080F0300080F0300080F03000838
:100060000F0300080F0300080F0300080F03000828
:100070000F0300080F0300080F0300080F03000818
:100080000F0300080F0300080F0300080000000022
:100090000000000000000000000000000F03000846
:1000A0000F0300080F0300080F0300080F030008E8
:1000B0000F0300080F0300080F0300080F030008D8
:1000C0000F0300080F0300080F0300080F030008C8
:1000D0000F03000879150008C11500080000000092
:1000E0000F0300080F0300080F03000800000000C2
:1000F0000000000000000000000000000F030008E6
:10010000000000000F030008451400080F0300085A
:1001100000000000000000000000000000000000DF
:100120000F0300080F0300080F0300080F03000867
:100130000F030008000000000000000000000000A5
:100140000000000000000000000000000F03000895
:100150000F0300080F0300080F0300080F03000837
:100160000F0300080F03000800000000000000005B
:10017000000000000000000000000000000000007F
:10018000000000000F030008000000000000000055
:100190000F03000800F002F800F03CF80AA090E815
:1001A000000C82448344AAF10107DA4501D100F032
:1001B00031F8AFF2090EBAE80F0013F0010F18BFC3
:1001C000FB1A43F001031847A42B0000C42B0000C6
:1001D000103A24BF78C878C1FAD8520724BF30C873
:1001E00030C144BF04680C60704700000023002445
:1001F00000250026103A28BF78C1FBD8520728BF37
:1002000030C148BF0B6070471FB502F071FD1FBDC4
:1002100010B510BD00F0A6F91146FFF7F5FF01F08B
:100220003BFA00F0C4F903B4FFF7F2FF03BC00F09F
:10023000CBF900002C4B19680868B0E8F04F80F348
:100240000988BFF36F8F4FF0000080F3118870476B
:100250000000000008480068006880F308884FF03C
:10026000000080F3148862B661B6BFF34F8FBFF30E
:100270006F8F00DF00BF00BF08ED00E0DFF80C006B
:10028000016841F470010160704700BF88ED00E033
:10029000EFF30980BFF36F8F134B1A681EF0100F36
:1002A00008BF20ED108A20E9F04F106009B44FF02C
:1002B000500080F31188BFF34F8FBFF36F8F01F0B1
:1002C000B5FF4FF0000080F3118809BC1968086879
:1002D000B0E8F04F1EF0100F08BFB0EC108A80F3AA
:1002E0000988BFF36F8F704720000020EFF305806F
:1002F000704700000948804709480047FEE7FEE7CD
:10030000FEE7FEE7FEE7FEE7FEE7FEE7FEE7FEE7C5
:1003100004480549054A064B70470000311400089F
:10032000950100087840002078460020784200209F
:100330007842002053EA020C00F069802DE9F04B6E
:100340004FF00006002B1FBFB3FA83F503FA05F444
:1003500024FA05F65E4012BF1643B2FA82F502FA9D
:1003600005F4C5F120051EBF22FA05FC44EA0C0481
:10037000203556EA044C4FEA144418BF641C4FF071
:1003800000084FF00009904271EB030C39D30029AB
:1003900019BFB1FA81F701FA07F6B0FA80F700FA4F
:1003A00007F6C7F120071EBF20FA07FC46EA0C0635
:1003B0002037B6FBF4FCA7EB0507103F07F01F0B37
:1003C000CBF120060CFA0BFB2CFA06F644BFB34621
:1003D0000026202FA4BF5E464FF0000B5BEA060C00
:1003E00008BF4FF0010B19EB0B09ABFB027C48EB8C
:1003F0000608C01B06FB02CC0BFB03CC71EB0C0107
:10040000C1E70B46024641464846BDE8F08B13B5AE
:100410004FF000004FF00001AFF30080BDE81C403A
:100420007047032A40F2308010F0030C00F0158072
:1004300011F8013BBCF1020F624498BF11F801CBE7
:1004400000F8013B38BF11F8013BA2F1040298BF4C
:1004500000F801CB38BF00F8013B11F0030300F0B6
:100460002580083AC0F0088051F8043B083A51F85A
:1004700004CBA0E80810F5E7121D5CBF51F8043B5F
:1004800040F8043BAFF30080D20724BF11F8013BD2
:1004900011F801CB48BF11F8012B24BF00F8013B34
:1004A00000F801CB48BF00F8012B704710B5203A87
:1004B000C0F00B80B1E81850203AA0E81850B1E81D
:1004C0001850A0E81850BFF4F5AF5FEA027C24BFD3
:1004D000B1E81850A0E8185044BF18C918C0BDE8CA
:1004E00010405FEA827C24BF51F8043B40F8043B93
:1004F00008BF7047D20728BF31F8023B48BF11F848
:10050000012B28BF20F8023B48BF00F8012B7047A1
:100510004FF0000200B5134694469646203922BF9C
:10052000A0E80C50A0E80C50B1F12001BFF4F7AFE7
:10053000090728BFA0E80C5048BF0CC05DF804EBC9
:10054000890028BF40F8042B08BF704748BF20F837
:10055000022B11F0804F18BF00F8012B7047704735
:1005600070477047754600F02BF8AE4605006946A7
:10057000534620F00700854618B020B5FFF7C8FEA7
:10058000BDE820404FF000064FF000074FF0000894
:100590004FF0000B21F00701AC46ACE8C009ACE815
:1005A000C009ACE8C009ACE8C0098D46704710B579
:1005B0000446AFF300802046BDE81040FFF733BE8D
:1005C000004870471440002001491820ABBEFEE7E8
:1005D00026000200704700BFFEE7704772B600BFFA
:1005E000FEE7000003480068034909780844014910
:1005F00008607047100000201800002010B50D485A
:10060000006840F400700B4908600846006840F438
:10061000806008600846006840F48070086003202D
:1006200000F0DCF80F2000F007F800F05FF8002081
:1006300010BD0000003C02402DE9F04188B00446A6
:100640000027B84600BF002001902348006840F012
:100650000800214908600846006800F00800019081
:1006600000BF00BF02A903A800F0CCF8069F1FB985
:1006700000F0F0F8054602E000F0ECF845001748FD
:10068000B5FBF0F0A0F1010815481649086040F2EA
:10069000E7311448C160C0F8048000210161816025
:1006A000816100F0E9F8064696B90E4800F018F9A5
:1006B00006466EB9322000F043F8102C07D2002213
:1006C0002146322000F04CF80748046000E0012683
:1006D000304608B0BDE8F0814038024040420F008B
:1006E000000C0040DC0200201400002008B500BF10
:1006F000002000901148006840F480400F490860D5
:100700000846006800F48040009000BF00BF00BFB2
:1007100000200090081F006840F08050091F08600A
:100720000846006800F08050009000BF00BF002223
:100730000F21901E00F014F808BD0000443802405C
:1007400001460846002809DB00F01F0301229A40F9
:1007500043099B0003F1E023C3F8002100BF704769
:100760002DE9F05F80460D461646002700F064FF35
:10077000074639462A46334601F00700C0F1070A0A
:10078000BAF1040F02D94FF0040A01E0C0F1070AE0
:10079000D14600F1040ABAF1070F02D24FF0000A65
:1007A00001E0A0F1030AD4464FF0010A0AFA09FA5F
:1007B000AAF1010A0AEA020A0AFA0CFA4FF0010B3E
:1007C0000BFA0CFBABF1010B0BEA030B4AEA0B042F
:1007D0002146404600F04CFFBDE8F09F00BF00F00E
:1007E0000702064B19684FF6FF031940044B0B43F1
:1007F00043EA0221014B196000BF70470CED00E095
:100800000000FA050F2202600D4A126802F003028E
:1008100042600B4A126802F0F0028260084A1268D5
:1008200002F4E052C260064A126802F46042D20842
:100830000261044A126802F007020A607047000071
:1008400008380240003C0240014800687047000040
:100850001C00002000B5FFF7F7FF04490968C1F349
:100860008221034A515CC84000BD000008380240A4
:100870004C2D00087047704710B504460CB9012094
:1008800010BD94F83D0028B9002084F83C002046B3
:1008900000F025F8022084F83D00211D206800F0BA
:1008A000D9FD012084F8460000BF84F83E000121F4
:1008B0003F200155402001554120015500BF00BF98
:1008C000012084F842004320015544200155452071
:1008D000015500BF012084F83D000020D0E770479B
:1008E000014691F83D00012801D001207047022007
:1008F00081F83D000868C06840F001000B68D860CE
:10090000164B0868984213D00868B0F1804F0FD09A
:10091000134B086898420BD0124B0868984207D0D6
:10092000114B0868984203D0104B086898420CD1CC
:100930000868806800F00702062A0CD00868006882
:1009400040F001000B68186005E00868006840F09E
:1009500001000B6818600020C8E70000000001409B
:100960000004004000080040000C0040004001402E
:10097000704710B5044620680069C0F34000D8B144
:100980002068C068C0F34000B0B16FF00200216879
:100990000861012020772068806900F0030018B109
:1009A0002046FFF7E5FF05E0204600F0ADF82046C1
:1009B00000F0ABF80020207720680069C0F38000C9
:1009C000D8B12068C068C0F38000B0B16FF00400F7
:1009D00021680861022020772068806900F4407057
:1009E00018B12046FFF7C4FF05E0204600F08CF860
:1009F000204600F08AF80020207720680069C0F3C4
:100A0000C000D8B12068C068C0F3C000B0B16FF0BA
:100A1000080021680861042020772068C06900F080
:100A2000030018B12046FFF7A3FF05E0204600F0C1
:100A30006BF8204600F069F80020207720680069F4
:100A4000C0F30010D8B12068C068C0F30010B0B186
:100A50006FF0100021680861082020772068C069C5
:100A600000F4407018B12046FFF782FF05E02046F1
:100A700000F04AF8204600F048F80020207720686F
:100A8000006900F0010058B12068C06800F0010062
:100A900030B16FF0010021680861204600F036F89F
:100AA00020680069C0F3C01058B12068C068C0F366
:100AB000C01030B16FF08000216808612046FFF758
:100AC000D9FE20680069C0F3801058B12068C06862
:100AD000C0F3801030B16FF04000216808612046FB
:100AE00000F020F820680069C0F3401058B1206879
:100AF000C068C0F3401030B16FF020002168086179
:100B00002046FFF7B8FE10BD7047704710B5044689
:100B100003492068884201D1FFF764FD10BD000041
:100B2000000C0040704700BFFEE7000008B5054913
:100B300009680143034A11601146096801400091A8
:100B400000BF08BD30380240F0B502460B46002415
:100B50000021186890FAA0F0B0FA80F48AE001252C
:100B6000A540186800EA050100297DD058680128D1
:100B700002D0586802281CD19868956891FAA1F6AD
:100B8000B6FA86F677000326BE40B54391FAA1F681
:100B9000B6FA86F6760000FA06F63543956000BF91
:100BA000D86855688D4301FB00F63543556000BF9A
:100BB00000BF1869D56891FAA1F6B6FA86F67700F3
:100BC0000326BE40B54391FAA1F6B6FA86F6760042
:100BD00000FA06F63543D56000BF5868022831D1C7
:100BE00091FAA1F0B0FA80F0082814D25869156A79
:100BF00091FAA1F6B6FA86F6B7000F26BE40B543C5
:100C000091FAA1F6B6FA86F6B60000FA06F6354372
:100C1000156200BF16E05869556A0E0A96FAA6F6E4
:100C2000B6FA86F6B7000F26BE40B5430E0A96FA0E
:100C3000A6F6B6FA86F6B60000FA06F63543556211
:100C400000BF00BF5868156891FAA1F6B6FA86F69B
:100C500077000326BE40B54391FAA1F6B6FA86F6B0
:100C6000760000FA06F600E003E03543156000BFA9
:100C700000BF641C1868E04000287FF470AFF0BD2E
:100C800010B5044600F078FA2060206800F040FAC1
:100C90006060606800F04CFAA060606800F05AFA8A
:100CA000E06010BD02480068C0F388107047000083
:100CB0000438024001490860704700001C00002011
:100CC000016921F490410161416921F02A014161EA
:100CD0007047C16841F40051C160704700BF00BF58
:100CE00000F10C0252E8002F42F0200100F10C024A
:100CF00042E80013002BF3D100BF70472DE9FF41FC
:100D000004460D4601270026204600F048F800283A
:100D100036D1E9686868084329690843A969084326
:100D2000E16849F20C6291430843E060A8682169D8
:100D300021F440510143216100BF6869616921F4D8
:100D400040710143616100BF6846FFF799FF0E489B
:100D5000844201D1039E08E00C48844201D1029EE6
:100D600003E00B48844200D1039E4EB1286838B19D
:100D70000027314620462B68AA6900F015F800BF0D
:100D8000384604B0BDE8F081001001400044004046
:100D90000014014001460868C0F3C01070470146C6
:100DA000C868C0F3403070472DE9FC5F06460C462A
:100DB00091461D46B9F5004F68D10220A0FB057091
:100DC00003461920A4FB00A001463A465046FFF70F
:100DD000B1FA6421B0FBF1F04FEA001A0220A0FB47
:100DE00005710B461920A4FB00B13A465846FFF79F
:100DF000A1FA83460220A0FB057003461920A4FB3C
:100E000000013A46CDE90001FFF794FA6421B0FBF6
:100E1000F1F000EBC00101EB0010ABEB80003221E0
:100E200001EBC0006421B0FBF1F000F0F8000AEB28
:100E3000400A0220A0FB057003461920A4FB00B164
:100E40003A465846FFF776FA83460220A0FB057023
:100E500003461920A4FB00013A46CDE90001FFF743
:100E600069FA6421B0FBF1F000EBC00101EB001066
:100E7000ABEB8000322101EBC0006421B0FBF1F04C
:100E800000F00700504480B2B06067E00420A0FB8F
:100E9000057003461920A4FB00A001463A465046BF
:100EA000FFF748FA82460420A0FB05711920A4FB35
:100EB00000B084463A460B4658466146FFF73AFA78
:100EC0006421B0FBF1F000EBC00101EB0010AAEBD4
:100ED0008000322101EB00106421B0FBF1F000F042
:100EE000F00A0420A0FB057003461920A4FB00B003
:100EF00001463A465846FFF71DFA6421B0FBF1F06F
:100F00000AEB001A0420A0FB057003461920A4FB7D
:100F100000B13A465846FFF70DFA83460420A0FB7D
:100F2000057003461920A4FB00013A46CDE90001F3
:100F3000FFF700FA6421B0FBF1F000EBC00101EB18
:100F40000010ABEB8000322101EB00106421B0FBFC
:100F5000F1F000F00F00504480B2B060BDE8FC9F9B
:100F60004160704710B50120FFF7E0FD10BD0000A3
:100F700030B58FB01C2108A8FFF7CAFA182102A8C3
:100F8000FFF7C6FA1020224909680143204A116080
:100F9000114609680140019100BF00BF0120FFF721
:100FA000C5FD4FF4C060029002200390032004901E
:100FB0000020059006900720079002A91548FFF72A
:100FC000C3FD00F031FB05460022052100F080F84A
:100FD00004462146252000F037FB252000F016FBB3
:100FE0004FF4E1300890002009900A900B900C20FB
:100FF0000C9000200D900E9008A90748FFF77EFE88
:101000000548FFF75DFE0448FFF763FE0FB030BDF3
:1010100044380240000002400010014030B58FB05B
:101020001C2108A8FFF774FA182102A8FFF770FA2C
:101030004FF40030214909680143204A11601146EC
:1010400009680140019100BF00BF0120FFF76EFD5C
:101050000C200290022003900320049000200590B1
:1010600006900720079002A91548FFF76DFD00F0D4
:10107000DBFA05460022052100F02AF80446214645
:10108000262000F0E1FA262000F0C0FA4FF4E1300B
:101090000890002009900A900B900C200C900020E2
:1010A0000D900E9008A90748FFF728FE0548FFF7A6
:1010B00007FE0448FFF70DFE0FB030BD4038024078
:1010C000000002400044004000BFFEE700BFFEE712
:1010D000F0B503460C4603F00701C1F107000428F0
:1010E00001D9042001E0C1F107000646081D0728C8
:1010F00001D2002000E0C81E05460120B040401E7D
:101100002040A8400127AF407F1E17403843F0BD64
:10111000014600BF0448006800F0F0000009034ADF
:10112000125C21FA02F07047083802403C2D00089A
:10113000014600BF0548006800F4E050044A02EB95
:101140009020027821FA02F070470000083802402F
:101150004C2D0008014600BF0548006800F46040BF
:10116000044A02EB5030027821FA02F07047000086
:10117000083802404C2D000810B5002400BF0C4870
:10118000006800F00C0020B1042804D0082809D120
:1011900003E0084C08E0084C06E0082000F00EF8D8
:1011A000044601E0034C00BF00BF204610BD000014
:1011B000083802400024F40040787D012DE9F04118
:1011C000044600250026002700BF1548006800F4EB
:1011D000800006461EB1B6F5800F04D101E0114D26
:1011E00003E0114D01E00F4D00BF00BF082C14D1EA
:1011F00000BF0B48006800F03F00B5FBF0F8FFF7B8
:1012000051FD08FB00F80648006800F44030012159
:1012100001EB10404000B8FBF0F73846BDE8F08124
:10122000043802400024F40040787D0108B500BF76
:101230004FF0FF3269460948006801F0E9F90028DB
:10124000F6D000BF0648FFF7A5FD0028FAD09DF8AC
:1012500000100348FFF784FEEAE700000C000020BE
:101260000010014008B500BF4FF0FF326946094841
:10127000006801F0CDF90028F6D000BF0648FFF75E
:1012800089FD0028FAD09DF800100348FFF768FE9A
:10129000EAE70000080000200044004010B500BF4D
:1012A000502080F31188BFF34F8FBFF36F8F00BFC3
:1012B00001F048FB18B14FF080500449086000BFAE
:1012C000002080F3118800BF10BD000004ED00E095
:1012D00070B502205149096821F0070101434F4AC6
:1012E000116000BF00BF00BF4C48006800F007005D
:1012F0000228F8D180034A49096821F4404101439A
:10130000474A116000BF10204649096821F0F801E2
:1013100041EAC001434A116000BF00BF10460068A7
:1013200040F001001146086000BF00BF00BF3D480B
:101330000068C0F340000028F8D0002008215422A3
:10134000034640EA010444EA8214364D2D1D2D68FF
:10135000354E35402C43334D2D1D2C602C462468D2
:1013600024F440341C432C6000BF00BF281F0068D9
:1013700040F08070291F086000BF00BF00BF2948EF
:101380000068C0F340600028F8D000BF00BF2448C8
:101390004068C0F380300028F8D00020214908318F
:1013A000096821F0F00101431E4A0832116000BFB4
:1013B00090141146096821F4E0510143116000BF07
:1013C00000201146096821F460410143116000BF0B
:1013D00002201146096821F003010143116000BF9A
:1013E00000BF00BF0F480830006800F00C0008285C
:1013F000F7D10E48FFF75EFC0F20FFF71DF908B18B
:10140000FFF7ECF8002007498C31096821F0807162
:101410000143044A8C32116000BF70BD003C0240A1
:1014200000700040003802400080BFFF00BD010591
:101430000348006840F470000149086070470000EC
:1014400088ED00E010B50248FFF793FA10BD0000E8
:10145000DC02002010B50268204B98420BD0B0F19E
:10146000804F08D01E4B984205D01E4B984202D0A8
:101470001D4B984203D122F070024B681A43174B60
:10148000984214D0B0F1804F11D0154B98420ED035
:10149000144B98420BD0144B984208D0134B9842EF
:1014A00005D0134B984202D0124B984203D122F43C
:1014B0004072CB681A4322F080034C6943EA04026D
:1014C00002608B68C3620B688362044B984201D14F
:1014D0000B6903630123436110BD0000000001405C
:1014E0000004004000080040000C004000400140A3
:1014F000004401400048014000B58FB01748FFF795
:10150000EDFB1748FFF7EAFB00220121084600F037
:1015100087FF1449086000220121084600F080FF7F
:10152000114908601C22114908A8FEF7BFFF0021DD
:1015300008A800F0CBF80E4908601C220B491C31AA
:1015400001A8FEF7B3FF002101A800F0BFF8094988
:10155000086000F0B6F80FB000BD000000100140B8
:1015600000440040080000200C000020042D00086A
:10157000000000200400002010B500F001F810BDAC
:101580001CB50020019000BF0A484068C0B200901E
:10159000002301AA69460848006800F0BBFF0198D3
:1015A00038B14FF0805005490860BFF34F8FBFF34B
:1015B0006F8F1CBD001001400800002004ED00E00A
:1015C00010B500F001F810BD1CB50020019000BF5F
:1015D0000A484068C0B20090002301AA6946084842
:1015E000006800F097FF019838B14FF0805005492E
:1015F0000860BFF34F8FBFF36F8F1CBD00440040E6
:101600000C00002004ED00E000BFFEE7002809DB2D
:1016100000F01F02012191404209920002F1E022F4
:10162000C2F800117047000002480068C0F30220B1
:10163000704700000CED00E002480068C0F3022093
:10164000704700000CED00E010B5002804DB0A072D
:10165000130E054A135406E00A07140E034A00F05D
:101660000F031B1FD45410BD00E400E018ED00E090
:1016700010B5002804DB0A07130E054A135406E0D0
:101680000A07140E034A00F00F031B1FD45410BDA9
:1016900000E400E018ED00E0FEF7B0FFFFF718FEF1
:1016A000FFF760FCFFF764FCFFF7B8FCFFF724FFCF
:1016B00000BFFEE701460020842901D0CA1C104467
:1016C000704710B500F052FD002010BD7FB50446F4
:1016D0000D46606998B1A06988B1B4F90800FFF7B8
:1016E000E9FF0646D4E90510CDE9006102902B46DA
:1016F0002269D4E9001001F0B7F8039013E0B4F9BF
:101700000800FFF7D7FF064603A8CDE90060238A4B
:101710009AB22B46D4E9001001F074F8012802D0E7
:10172000002004B070BD0398FBE700002DE9F041F4
:1017300005460E461C4807681C480068001D00F05E
:10174000A7FB50B91948006890F82C100120884078
:1017500017490968814316480160681C38B936B1D9
:1017600012480168091D134800F0DCFB1AE07C19DF
:101770000E4800684460BC4207D20C480168091D4D
:101780000D48006800F0B4FB0CE008480168091D32
:101790000A48006800F0ACFB09480068844201D2A6
:1017A00007480460BDE8F0813400002020000020DC
:1017B0003800002000040020280000202400002021
:1017C0005000002010B5044600F0B8FB2348006824
:1017D000401C224908602248006840B92048046043
:1017E0000846006801280DD100F0A6F90AE01D485E
:1017F000006838B91A480068C06AE16A884201D8AE
:101800001748046018480068401C1749086094F89D
:101810002C100120884015490968084313490860C5
:10182000E16A01EB8101124A02EB8100211D00F007
:1018300079FB00F0ADFB0B48006868B10848006810
:10184000C06AE16A884207D24FF0805009490860B7
:10185000BFF34F8FBFF36F8F10BD0000300000202B
:10186000200000203C0000204C0000203800002018
:101870002403002004ED00E010B516E000F05EFB4C
:101880000C48C068C468201D00F002FB0A480068CC
:10189000401E0949086009480068401E0749086061
:1018A00000F076FB204600F05FF80448006800284E
:1018B000E4D110BDEC030020300000202C000020FB
:1018C00070B504460D46206C70B1216CE06801448F
:1018D000E160D4E90210884201D32168E160284622
:1018E000226CE168FEF79DFD70BD2DE9F0410446D4
:1018F0000F4615464FF00008A66B206C48B92068CB
:1019000000282CD1A06801F0C1F880460020A0601A
:1019100025E07DB93946226C6068FEF782FD216CB6
:10192000606808446060D4E90101884217D32068E8
:10193000606014E03946226CE068FEF772FD216CAD
:10194000E068411AE1602168E068884203D2216CB6
:10195000A068411AE160022D01D106B1761E701C0B
:10196000A0634046BDE8F08110B5044694F85100EC
:1019700030B9206B00F02AFB204600F027FB1AE06C
:1019800094F85100012803D1204600F01FFB12E01B
:1019900094F85100022801D1012000E0002050B944
:1019A00000BF502080F31188BFF34F8FBFF36F8FBC
:1019B00000BF00BFFEE710BD30B54FF470531748AD
:1019C00000F007042CB1C01D20F00700134C041BCD
:1019D0001B1B0246124C22600024114D6C60D01873
:1019E000083820F007000F4C206000240D4D2D68B2
:1019F0006C600C4D2D682C601146441A4C60094CEB
:101A000024680C60084D4C682C60084D4C682C60B4
:101A10004FF00044064D2C6030BD0000140400203F
:101A20005C000020640000206C00002068000020A2
:101A30007800002000BFFFF71FFF0648006801285C
:101A4000F9D94FF0805004490860BFF34F8FBFF3BE
:101A50006F8FF0E72403002004ED00E02DE9F04152
:101A600006460D4617469846069C0DB9246000E0D0
:101A70002760E66325640121204600F0FFFCBDE8F5
:101A8000F0812DE9FF5F81460E469246DDE90E7B2F
:101A9000109CAAF10100216B01EB800828F00708D7
:101AA00008F0070008B9012000E0002050B900BF8D
:101AB000502080F31188BFF34F8FBFF36F8F00BFAB
:101AC00000BFFEE786B1002507E0715D04F1340038
:101AD0004155705D00B902E06D1C102DF5D300BFBB
:101AE00000214320015502E0002084F83400072F34
:101AF00000D30627E76267640020A064201D00F081
:101B0000F4F904F1180000F0F0F92461C7F10700BE
:101B1000A06164620020E06484F8500049464046B9
:101B2000039A00F09FF92060BBF1000F01D0CBF8C1
:101B30000040BDE8FF9F000010B5002407E004EB63
:101B400084010F4A02EB810000F0C2F9641C072CEB
:101B5000F5D30C4800F0BCF90B4800F0B9F90B487C
:101B600000F0B6F90A4800F0B3F90A4800F0B0F9FD
:101B700004480949086004480849086010BD00008D
:101B800024030020B0030020C4030020D803002059
:101B9000EC03002000040020240000202800002086
:101BA00010B50146164800E0006803688B42FBD37D
:101BB0000246436813448B4204D143684C68234473
:101BC000436001460A464B6813440468A34211D19E
:101BD0000C4C03682468A34208D04B68046864680E
:101BE00023444B6003681B680B6005E0054B1B68D2
:101BF0000B6001E003680B60884200D0016010BDFB
:101C00005C0000206400002070B5054600F096F9E5
:101C1000A86B08B9012400E0002400F0B9F92046BF
:101C200070BD00000A490968096809B9012100E08E
:101C3000002121B14FF0FF31064A116006E004494E
:101C40000968C968C868034A4168116070470000A4
:101C500024000020500000200E480068401C08B9F5
:101C6000012000E0002050B900BF502080F311880F
:101C7000BFF34F8FBFF36F8F00BF00BFFEE700BF02
:101C8000502080F31188BFF34F8FBFF36F8F00BFD9
:101C900000BFFEE77C00002070B5044600F04EF95E
:101CA00094F9455010E0606A08B9012000E0002076
:101CB00038B904F1240000F04DFF18B100F034FAF7
:101CC00000E003E0681E45B2002DECDC00BFFF2001
:101CD00084F8450000F05CF900F030F994F94450C4
:101CE00010E0206908B9012000E0002048B904F1A3
:101CF000100000F02FFF08B100F016FA681E45B280
:101D000000E001E0002DECDC00BFFF2084F844007F
:101D100000F03EF970BD00002DE9F04104464FF09F
:101D2000000800F07BFA4948006808B9FFF744FE54
:101D3000474800682040002870D1D4B1083404F02E
:101D40000700B0B104F00700C0F10800044404F03B
:101D5000070008B9012000E0002050B900BF502062
:101D600080F31188BFF34F8FBFF36F8F00BF00BFA9
:101D7000FEE7002C52D03748006884424ED8364ED9
:101D80003046056801E02E462D686868A04202D200
:101D900028680028F7D12D48006885423ED0306879
:101DA00000F10808286830606868001B102819D9FD
:101DB0002F1907F0070008B9012000E0002050B9F2
:101DC00000BF502080F31188BFF34F8FBFF36F8F98
:101DD00000BF00BFFEE76868001B78606C60384693
:101DE000FFF7DEFE1B4968680968081A1949086090
:101DF0000846006819490968884203D215480068F6
:101E0000164908601249686809680843686000203C
:101E1000286013480068401C1149086000F0E6FE85
:101E200008F0070008B9012000E0002050B900BF09
:101E3000502080F31188BFF34F8FBFF36F8F00BF27
:101E400000BFFEE74046BDE8F081000064000020CE
:101E500078000020680000205C0000206C0000205A
:101E600070000020001F4FF080730360001F21F0FE
:101E700001030360001F054B036014380260001F5C
:101E80006FF002030360203870470000591C0008FF
:101E900001460A69D1E901309860D1E9010358602F
:101EA0005068884201D1886850600020086110683D
:101EB000401E106010687047034B0360034B0B60BB
:101EC000802313607047000088000020DC000020A1
:101ED00000F1080141604FF0FF31816000F108011D
:101EE000C1600161002101607047002101617047FC
:101EF00010B502460B685C1C0CB9106907E002F1D2
:101F0000080000E04068446824689C42FAD94468AC
:101F10004C604C68A160886041600A611468641C70
:101F2000146010BD42684A6093688B609368596082
:101F30009160086103685B1C0360704700BF50201C
:101F400080F31188BFF34F8FBFF36F8F00BF0E4830
:101F50000068401C0C49086008460068012812D13E
:101F60000A480068C0B208B9012000E0002050B95A
:101F700000BF502080F31188BFF34F8FBFF36F8FE6
:101F800000BF00BFFEE770477C00002004ED00E0CA
:101F90000D48006850B900BF502080F31188BFF38E
:101FA0004F8FBFF36F8F00BF00BFFEE7064800688A
:101FB000401E054908600846006820B9002080F3EB
:101FC000118800BF00BF70477C00002070B5064636
:101FD0003546002E44D0083D2C46224960680968E9
:101FE000084008B1012000E0002050B900BF502097
:101FF00080F31188BFF34F8FBFF36F8F00BF00BF17
:10200000FEE7206808B9012000E0002050B900BFB9
:10201000502080F31188BFF34F8FBFF36F8F00BF45
:1020200000BFFEE70F49606809680840C0B120683A
:10203000B0B90C49606809688843606000F0EEF848
:102040000949606809680844074908602046FFF7A5
:10205000A7FD06480068401C0449086000F0C6FD62
:1020600070BD00007800002068000020740000208F
:1020700000204FF0E02108618861064800684FF4B5
:102080007A71B0FBF1F0401E4FF0E021486107206B
:10209000086170471C00002070B5FEF727F9044660
:1020A000102C16D304F1E02090F8F0531548007876
:1020B000854201DB012000E0002050B900BF502024
:1020C00080F31188BFF34F8FBFF36F8F00BF00BF46
:1020D000FEE70D48006800F4E0600C49096888429A
:1020E00001D8012000E0002050B900BF502080F34B
:1020F0001188BFF34F8FBFF36F8F00BF00BFFEE7A4
:1021000070BD0000800000200CED00E08400002085
:10211000034909680160034909684160704700008C
:102120004800002034000020012001490860704769
:102130004400002070B504460D4654B900BF50203D
:1021400080F31188BFF34F8FBFF36F8F00BF00BFC5
:10215000FEE70548016818312046FFF7C9FE012156
:102160002846FFF7E3FA70BD2000002010B586B0C6
:1021700000200590049003AA04A905A8FFF79CFE7F
:102180000022DDE904101346CDE9002102901CA1D4
:102190001D48039A00F068FB1C4908600846006867
:1021A00008B1012400E00024012C15D100BF50200B
:1021B00080F31188BFF34F8FBFF36F8F00BF4FF0D5
:1021C000FF301349086001201249086000201249BD
:1021D000086000F071F810E0601C08B1012000E018
:1021E000002050B900BF502080F31188BFF34F8FFB
:1021F000BFF36F8F00BF00BFFEE706B010BD000049
:1022000049444C4500000000351A000854000020E5
:10221000500000203C0000203400002002480068EC
:10222000401C014908607047580000201D480068A4
:1022300018B101201C49086032E000201A490860EA
:102240001A480068B0FA80F0C0F11F0101EB81006C
:10225000174A52F8200008B1012000E0002050B9D0
:1022600000BF502080F31188BFF34F8FBFF36F8FF3
:1022700000BF00BFFEE701EB81020D4B03EB8200C4
:1022800042685268426000F108024368934202D1FA
:102290004268526842604268D268064B1A6000BFCA
:1022A0007047000058000020440000203800002043
:1022B00024030020200000201CB552480068524929
:1022C000884201D0012000E0002050B900BF50201A
:1022D00080F31188BFF34F8FBFF36F8F00BF00BF34
:1022E000FEE7484800684849491E884201D001205D
:1022F00000E0002050B900BF502080F31188BFF3E8
:102300004F8FBFF36F8F00BF00BFFEE73F49084606
:1023100000780190FF200A4610700846007800906F
:102320009DF8000000F0F0009DF80020904201D1DF
:10233000012000E0002050B900BF502080F3118838
:10234000BFF34F8FBFF36F8F00BF00BFFEE79DF855
:10235000000000F050002E4A107007202D4A106037
:1023600009E02C480068401E2A4A10609DF80000D1
:102370004006000E00909DF8000000F080008028CC
:10238000EFD024480068C0F10700042801D10120E3
:1023900000E0002050B900BF502080F31188BFF347
:1023A0004F8FBFF36F8F00BF00BFFEE71948006873
:1023B0000002184A10601046008800F4E0601060C7
:1023C000124A019810700F482030006840F47000E5
:1023D0000C49203108600846006840F070400860F1
:1023E000FFF746FE00200C490860FDF747FF0B4849
:1023F000006840F0404009490860FDF72BFF0020CD
:102400001CBD000000ED00E071C20F4100E400E0DF
:1024100080000020840000207C00002034EF00E0D9
:102420002DE9F84305460E4617460DB1012000E0A0
:10243000002050B900BF502080F31188BFF34F8FA8
:10244000BFF36F8F00BF00BFFEE705FB06F808F182
:102450004800FFF761FC044664B1A14609F1480950
:10246000002084F846003B464A4631462846009400
:10247000FFF7F4FA2046BDE8F883000070B5054682
:102480000E462C4654B900BF502080F31188BFF38C
:102490004F8FBFF36F8F00BF00BFFEE7FFF74EFD0A
:1024A000D4E90F12206801FB0200A0600020A063A5
:1024B00020686060E06B401E226C216800FB021106
:1024C000E160FF2084F8440084F845009EB920694B
:1024D00008B9012000E00020A8B904F1100000F0C4
:1024E00039FB80B14FF0805009490860BFF34F8F2E
:1024F000BFF36F8F07E004F11000FFF7E9FC04F170
:102500002400FFF7E5FCFFF743FD012070BD00004C
:1025100004ED00E02DE9F84F07468A4690461E4636
:102520003C4654B900BF502080F31188BFF34F8F51
:10253000BFF36F8F00BF00BFFEE7BAF1000F01D1FC
:10254000206C08B9012000E0002050B900BF5020E5
:1025500080F31188BFF34F8FBFF36F8F00BF00BFB1
:10256000FEE7022E02D1E06B012801D1012000E03C
:10257000002050B900BF502080F31188BFF34F8F67
:10258000BFF36F8F00BF00BFFEE7FFF785FD00BF01
:102590005021EFF3118081F31188BFF34F8FBFF308
:1025A0006F8F00BF0546A06BE16B884201D3022EFE
:1025B00025D194F945B0A06B009032465146204693
:1025C000FFF793F90BF1010088B9606A08B901209F
:1025D00000E0002050B904F1240000F0BBFA28B15B
:1025E000B8F1000F02D00120C8F8000004E00BF1A0
:1025F000010040B284F845004FF0010901E04FF0BE
:10260000000900BF85F3118800BF4846BDE8F88F78
:102610002DE9F74183B005460E464FF000082C46E1
:1026200054B900BF502080F31188BFF34F8FBFF320
:102630006F8F00BF00BFFEE70EB9206C08B9012004
:1026400000E0002050B900BF502080F31188BFF394
:102650004F8FBFF36F8F00BF00BFFEE700F062F93E
:1026600008B9059808B9012000E0002050B900BF62
:10267000502080F31188BFF34F8FBFF36F8F00BFDF
:1026800000BFFEE700BFFFF759FCA76BF7B131466B
:102690002046FFF715F9781EA063206908B90120CC
:1026A00000E0002060B904F1100000F053FA38B1E6
:1026B0004FF080502F490860BFF34F8FBFF36F8FEB
:1026C000FFF766FC012006B0BDE8F081059818B957
:1026D000FFF75EFC0020F6E7B8F1000F04D101A877
:1026E000FFF716FD4FF00108FFF752FCFFF796FDCC
:1026F000FFF724FC94F94400401C10B9002084F832
:10270000440094F94500401C10B9002084F84500AD
:10271000FFF73EFC05A901A800F02EF8F0B920460D
:10272000FFF772FAA0B104F124000599FFF702FD4A
:102730002046FFF7B1FA00F059FA0028A3D14FF074
:1027400080500C490860BFF34F8FBFF36F8F9AE73B
:102750002046FFF7A1FA00F049FA94E72046FFF778
:102760009BFA00F043FA2046FFF74EFA00288AD081
:102770000020A8E704ED00E070B505460C4655B909
:1027800000BF502080F31188BFF34F8FBFF36F8FCE
:1027900000BF00BFFEE754B900BF502080F311888E
:1027A000BFF34F8FBFF36F8F00BF00BFFEE7FFF790
:1027B000C5FB124802686868131A2068401C08B9F3
:1027C000002617E00E4928680968884204D0686826
:1027D000904201D801260DE02068984207D9206870
:1027E000C01A20602846FFF793FC002602E0002074
:1027F00020600126FFF7CCFB304670BD340000207E
:10280000480000202DE9FF4F85B0804689461746D5
:10281000DDE912ABB800FFF77FFA064656B1542047
:10282000FFF77AFA04460CB1266304E03046FFF75E
:10283000CDFB00E000248CB1002084F85100CDE9EC
:1028400000ABCDE902403A4649464046089BFFF7B7
:1028500018F92046FEF7B6FF012501E04FF0FF35DD
:10286000284609B0BDE8F08F2DE9F04F85B0074646
:10287000884691469A46DDE90EB6109C0EB10120BD
:1028800000E0002050B900BF502080F31188BFF352
:102890004F8FBFF36F8F00BF00BFFEE70CB1012069
:1028A00000E0002050B900BF502080F31188BFF332
:1028B0004F8FBFF36F8F00BF00BFFEE75420039020
:1028C0000398542801D1012000E0002050B900BF36
:1028D000502080F31188BFF34F8FBFF36F8F00BF7D
:1028E00000BFFEE700BFB4B1AEB125462C462E6353
:1028F000022085F85100002004A953464A46CDE93C
:1029000000B1CDE9025041463846FFF7BAF82846F3
:10291000FEF758FF01E000200490049805B0BDE8E0
:10292000F08F00000549096809B9012005E0044954
:10293000096809B9022000E0002070473C0000202F
:10294000580000202DE9F0414FF00008444800688D
:1029500000287CD143480068451C4248056015BBEF
:1029600041480068006808B9012000E0002050B923
:1029700000BF502080F31188BFF34F8FBFF36F8FDC
:1029800000BF00BFFEE7384807683848006836498E
:1029900008603648076036480068401C34490860C3
:1029A000FFF740F900BF3348006885423CD300BFC1
:1029B0002D480068006808B9012000E0002020B11F
:1029C0004FF0FF302B4908602DE027480068C068B1
:1029D000C4686668B54202D22648066023E0201D1E
:1029E000FFF756FAA06A18B104F11800FFF750FA81
:1029F00094F82C10012088401F49096808431E499B
:102A00000860E16A01EB81011C4A02EB8100211D93
:102A1000FFF788FA1A49E06A0968C96A8842C7D389
:102A20004FF00108C4E700BF15480068C06A00EB1A
:102A30008000124951F82000012801D94FF0010807
:102A40001048006808B14FF0010805E0FFE70E48A4
:102A50000068401C0C4908604046BDE8F081000059
:102A6000580000203400002024000020280000200E
:102A700048000020500000203800002024030020DF
:102A800020000020440000204000002070B50546D2
:102A90002C460026002D55D02B480068844201D1D9
:102AA000012000E0002050B900BF502080F31188C1
:102AB000BFF34F8FBFF36F8F00BF00BFFEE7A06C67
:102AC00050B900BF502080F31188BFF34F8FBFF380
:102AD0006F8F00BF00BFFEE7A06C401EA064616C5A
:102AE000E06A88422ED0A06C60BB201DFFF7D0F9B1
:102AF00078B9E06A00EB8000144951F8200040B931
:102B000094F82C100120884011490968814310482D
:102B10000160606CE062E06AC0F10700A06194F8B7
:102B20002C10012088400A490968084308490860B8
:102B3000E16A01EB8101054A02EB8100211DFFF7EB
:102B4000F1F90126304670BD20000020240300204A
:102B50003800002070B50646F068C46854B900BF5C
:102B6000502080F31188BFF34F8FBFF36F8F00BFEA
:102B700000BFFEE704F11800FFF78AF91548006866
:102B8000A8B9201DFFF784F994F82C100120884083
:102B900011490968084310490860E16A01EB8101A5
:102BA0000E4A02EB8100211DFFF7BCF904E004F19D
:102BB00018010B48FFF7B6F90A49E06A0968C96AC3
:102BC000884204D9012501200749086000E000255A
:102BD000284670BD58000020380000202403002043
:102BE000D8030020200000204400002070B50024FD
:102BF00000263648006850B900BF502080F3118885
:102C0000BFF34F8FBFF36F8F00BF00BFFEE7FFF72B
:102C100095F92E480068401E2C4908600846006857
:102C200000284FD12A48006800284BD024E02948CA
:102C3000C068C46804F11800FFF72AF9201DFFF7E7
:102C400027F994F82C10012088402349096808438B
:102C500021490860E16A01EB8101204A02EB810011
:102C6000211DFFF75FF91E49E06A0968C96A8842B9
:102C700002D301201B4908601648006808B90120EA
:102C800000E000200028D2D00CB1FEF7CBFF1648A0
:102C9000056865B100BFFFF755FE10B1012011496D
:102CA00008606D1E002DF6D100200F4908600D4808
:102CB000006838B1012630070C490860BFF34F8F18
:102CC000BFF36F8FFFF764F9304670BD58000020E6
:102CD00030000020D803002038000020240300200A
:102CE00020000020440000204000002004ED00E00F
:102CF0004FF04070E1EE100A704700001028405875
:102D00007088A0B8542D00082D12000800000000A3
:102D10000000000080000000000000000000000033
:102D2000602D00086512000800000000000000008F
:102D30008000000000000000000000000000000013
:102D4000000000000102030406070809000000005B
:102D50000102030455415254315F5461736B00000A
:102D600055415254325F5461736B00008C2D000842
:102D70000000002088000000D0010008142E000888
:102D800088000020F0450000EC0100080000000071
:102D90000000000000000000000000000000000033
:102DA00010000000010000000024F40000000000FA
:102DB0000000000000000000000000000000000013
:102DC0000000000000000000000000000000000003
:102DD00000000000000000000000000000000000F3
:102DE00000000000000000000000000000000000E3
:102DF00000000000000000000000000000000000D3
:102E00000000000000000000AAAAAAAA000000001A
:042E100000000000BE
:040000050800019559
:00000001FF
